:100000000C9434000C943E000C943E000C943E0082
:100010000C943E000C943E000C943E000C943E0068
:100020000C943E000C943E000C943E000C943E0058
:100030000C943E000C943E000C943E000C943E0048
:100040000C943E000C943E000C943E000C943E0038
:100050000C943E000C943E000C943E000C943E0028
:100060000C943E000C943E0011241FBECFEFD8E04C
:10007000DEBFCDBF0E9410010C94A2010C940000C1
:100080008230910591F02CF4009749F0019751F0DE
:1000900008958330910561F0049769F0089585B55E
:1000A00081600BC085B5826008C085B5836005C0DE
:1000B00085B5846002C085B5856085BD08958130B1
:1000C000910519F0029729F0089580917C008064D1
:1000D00003C080917C00806C80937C000895833005
:1000E0009105B1F034F48130910551F0029761F03F
:1000F000089585309105A1F07CF00697A9F0089548
:1001000080917A00826013C080917A0083600FC072
:1001100080917A0084600BC080917A00856007C06E
:1001200080917A00866003C080917A008760809316
:100130007A000895DC01A851BC4F11961C921E92C2
:10014000FC0161937193EA17FB07D9F708950F93A8
:100150001F93DC01FC01E851FC4F60E070E0CB0133
:100160000D911D91222717FD2095322F600F711FD1
:10017000821F931FAE17BF0799F724EF31E040E0CD
:1001800050E00E946101C9011F910F910895CF9322
:10019000DF93FC01EC01C851DC4F28813981D90182
:1001A000AA0FBB1FAE0FBF1F6D937C93C9010196B1
:1001B00064EF71E00E944D0199838883442329F004
:1001C000CF01DF91CF910C94A70080E090E0DF9108
:1001D000CF91089581E090E00E945F0084E090E07C
:1001E0000E946F00EAE7F0E0808180688083EEE79C
:1001F000F0E080818F608083089580917C00807F13
:1002000080937C0080917A00806480937A00809152
:100210007A0086FDFCCF8091780090917900089556
:10022000CF93DF93CDB7DEB7CA5ED3400FB6F89455
:10023000DEBF0FBECDBF0E94EA00569A84B580682B
:1002400084BD84B5816084BD80E090E00E94400060
:1002500084B5806884BD209A60E070E0CE0101968C
:100260000E949A000E94FD0041E0BC01CE0101966F
:100270000E94C7008E5F914023E0880F991F2A9546
:10028000E1F78F3F910519F014F08FEF90E097FFA1
:1002900002C080E090E087BDE5CFAA1BBB1B51E107
:1002A00007C0AA1FBB1FA617B70710F0A61BB70BE6
:1002B000881F991F5A95A9F780959095BC01CD018B
:1002C0000895052E97FB1EF400940E94780157FDB7
:1002D00007D00E94800107FC03D04EF40C947801F3
:1002E00050954095309521953F4F4F4F5F4F089562
:1002F00090958095709561957F4F8F4F9F4F089592
:10030000A1E21A2EAA1BBB1BFD010DC0AA1FBB1F19
:10031000EE1FFF1FA217B307E407F50720F0A21B8B
:10032000B30BE40BF50B661F771F881F991F1A94F8
:1003300069F760957095809590959B01AC01BD0122
:08034000CF010895F894FFCFEE
:00000001FF
